:020000040800F2
:10000000502900203D0800089D0800089D080008B0
:100010009D0800089D0800089D08000800000000D9
:100020000000000000000000000000009D08000823
:100030009D080008000000009D0800089D080008B9
:100040009D0800089D0800089D0800089D080008FC
:100050009D0800089D0800083D3D00089D08000817
:100060009D0800089D0800089D0800089D080008DC
:100070009D0800089D0800089D0800089D080008CC
:100080009D0800089D0800089D0800089D080008BC
:100090009D0800089D0800089D0800089D080008AC
:1000A0009D0800089D0800089D0800089D0800089C
:1000B0009D080008890A00089D0800089D0800089E
:1000C0009D0800089D0800089D0800089D0800087C
:1000D0009D080008C52000089D0800089D0800082C
:1000E000F13D00089D0800089D0800080000000080
:1000F0000000000000000000000000000000000000
:1001000000000000000000005FF808F180B500AFBB
:10011000154B1B68144A43F001031360124B5A68D5
:100120001149124B13404B600F4B1B680E4A23F0D2
:10013000847323F4803313600B4B1B680A4A23F447
:1001400080231360084B5B68074A23F4FE03536067
:10015000054B4FF41F029A6000F00CF8044B4FF06F
:1001600000629A6000BF80BD001002400000FFF8EE
:1001700000ED00E080B500AF00F002F800BF80BDE8
:1001800080B483B000AF00237B6000233B603A4B18
:100190001B68394A43F480331360374B1B6803F400
:1001A00000333B607B6801337B603B68002B03D1ED
:1001B0007B68B3F5A06FF0D12F4B1B6803F40033BD
:1001C000002B02D001233B6001E000233B603B6831
:1001D000012B4BD1294B1B68284A43F010031360B5
:1001E000264B1B68254A23F003031360234B1B682F
:1001F000224A43F0020313601F4B1F4A5B6853609F
:100200001D4B1D4A5B6853601B4B5B681A4A43F4E5
:1002100080635360184B5B68174A23F47C13536068
:10022000154B5B68144A43F4E8135360124B1B6888
:10023000114A43F08073136000BF0F4B1B6803F03B
:100240000073002BF9D00C4B5B680B4A23F00303BF
:100250005360094B5B68084A43F00203536000BFD8
:10026000054B5B6803F00C03082BF9D100BF0C377A
:10027000BD4680BC704700BF001002400020024015
:1002800080B500AFAF2000F013F8024B01221A70C6
:1002900000BF80BD000A002080B500AFAE2000F096
:1002A00007F8024B00221A7000BF80BD000A002030
:1002B00080B582B000AF0346FB71094B80221A70F3
:1002C000074AFB795370782003F078FA022104483A
:1002D00003F0A6FA03F0CCFA00BF0837BD4680BD94
:1002E0006C0A002080B582B000AF78600B46FB70CE
:1002F000782003F063FAFB781946786803F090FAE7
:1003000003F0B6FA00BF0837BD4680BD80B582B0A5
:1003100000AF03460A46FB711346BB71FB7903F03D
:100320000F03DBB21846FFF7C3FFFB791B09DBB2F3
:1003300043F01003DBB21846FFF7BAFFBB7963F056
:100340004F03DBB21846FFF7B3FF00BF0837BD46C7
:1003500080BD000080B584B000AF0346FB718120F2
:1003600003F080FD03461A461B4B1A601A4B1B68AC
:1003700040221A700023FB731EE0FB7B194600200D
:10038000FFF7C4FF0023BB7309E0134B1A68BB7B64
:1003900001331344FA791A70BB7B0133BB7397F9AD
:1003A0000E30002BF1DA0C4B1B6881211846FFF749
:1003B00099FFFB7B0133FB73FB7B072BDDD900210E
:1003C0000020FFF7A3FF044B1B68184603F052FD03
:1003D00000BF1037BD4680BD700A002090B587B0C1
:1003E00000AF0446084611461A462346FB710346F1
:1003F000BB710B467B7113463B71FA797B791344D1
:10040000802B00F3D580BA793B791344402B00F35D
:10041000CF807B79002B00F0CB803B79002B00F064
:10042000C7803B7903F00703DBB2002B08D03B7990
:10043000DB08DBB201337A7902FB03F33B6107E0AF
:100440003B79DB08DBB21A467B7903FB02F33B61A5
:10045000BB79DB08FB72BA793B791344013B002B73
:1004600000DA0733DB10BB72BB7903F007037B7242
:10047000BA793B791344DBB203F007037B737B7BD0
:10048000002B03D07B7BC3F108037B7300237B61CC
:100490007B790133184603F0E5FC03461A46464BC8
:1004A0001A60454B1B6840221A70FB7ABB7374E0DC
:1004B000BA7BFB7911461846FFF728FFFB79FB73DF
:1004C00059E0BA7BFB7A9A4209D1BA6A7B69134434
:1004D0001B781A467B7A02FA03F33B732CE0BA7B53
:1004E000BB7A9A420FD17A693B699A420BD37B79E6
:1004F0007A69D31ABA6A13441B781A467B7B42FA8C
:1005000003F33B7318E07B797A69D31ABA6A134410
:100510001B781A467B7AC3F1080342FA03F35AB2F6
:10052000B96A7B690B441B7819467B7A01FA03F39D
:100530005BB213435BB23B7397F82C30002B0BD0AC
:100540001D4B1A68F97BFB79CB1A013313443A7BB4
:10055000D243D2B21A7008E0174B1A68F97BFB79C4
:10056000CB1A013313443A7B1A707B6901337B61E8
:10057000FB7B0133FB73FA7BF9797B790B449A425D
:100580009FDB0D4B1A687B790133DBB219461046AD
:10059000FFF7A8FEBB7B0133BB73BA7BBB7A013389
:1005A0009A4285DB044B1B68184603F063FC00E0AD
:1005B00000BF1C37BD4690BD700A002080B586B0D4
:1005C00000AF3A601A460346FB710B46BB711346F7
:1005D0007B710023FB7540233B726CE0FB7D3A6826
:1005E00013441B78BF2B0BD9FB7D3A6813441B784F
:1005F000A3F1400213465B0013445B003B6109E03A
:10060000FB7D3A6813441B781A4613465B0013447B
:100610005B003B61FB79792B04D90023FB71BB792B
:100620000133BB71BB79072B01D90023BB71BA79A8
:10063000FB7911461846FFF769FE0023BB752BE0D6
:1006400097F82030002B08D0BA7D3B6913441F4A2D
:10065000D35C63F07F037B7505E0BA7D3B6913448F
:100660001A4AD35C7B757B79002B0AD0BB7D0133A2
:100670007A7DD243D2B207F118010B4403F8102C53
:1006800007E0BB7D013307F1180213447A7D03F8BC
:10069000102CBB7D0133BB75BB7D052BD0D907F179
:1006A000080307211846FFF71DFEFB790633FB718F
:1006B000FB7D0133FB75FB7D3A6813441B78002BEF
:1006C0008CD100BF1837BD4680BD00BFD0460008A2
:1006D00080B586B002AF3A601A460346FB710B46FE
:1006E000BB7113467B710023FB732DE0FB7B3A68E3
:1006F00013441B78BF2B0BD9FB7B3A6813441B7840
:10070000A3F1400213465B001344DB00BB6009E029
:10071000FB7B3A6813441B781A4613465B0013446C
:10072000DB00BB60BB680D4A1344B979F8797A796C
:100730000192009310230C22FFF750FEFB7B013344
:10074000FB73FB790C33FB71FB7B3A6813441B781A
:10075000002BCBD100BF1037BD4680BD504B0008E9
:1007600080B500AFAE20FFF7A3FD2020FFF7A0FD6E
:100770001020FFF79DFDB020FFF79AFDC820FFF77E
:1007800097FD0020FFF794FD1020FFF791FD40201A
:10079000FFF78EFD8120FFF78BFDFF20FFF788FD1F
:1007A000A120FFF785FDA620FFF782FDA820FFF717
:1007B0007FFD3F20FFF77CFDD320FFF779FD002070
:1007C000FFF776FD4020FFF773FD8D20FFF770FDEA
:1007D0001420FFF76DFD2020FFF76AFD0020FFF7D2
:1007E00067FDA120FFF764FDC820FFF761FDDA2057
:1007F000FFF75EFD1220FFF75BFD8120FFF758FD3C
:10080000C820FFF755FDD920FFF752FDF120FFF773
:100810004FFDDB20FFF74CFD4020FFF749FDA420F2
:10082000FFF746FDA620FFF743FD0020FFF792FDEE
:10083000AF20FFF73DFD00BF80BD000080B582B056
:1008400000AF114B7B60114B3B6007E07A68131DD2
:100850007B603B68191D396012681A603B680C4A5E
:100860009342F3D30B480C494FF000028842B8BFC3
:1008700040F8042BFADBFFF749FC00F09FFD00BFB6
:100880000837BD4680BD00BF7E5E00080000002026
:10089000000A0020000A00205025002080B582B008
:1008A00002AF0020FFF756FD4FF4FA7002F018F87F
:1008B000002300930023054A03212820FFF77EFE32
:1008C0004FF4FA7002F00CF8EBE700BF505D00083F
:1008D00080B483B000AF0346FB71FB7903F01F03C4
:1008E000012202FA03F1054A97F907305B0942F841
:1008F000231000BF0C37BD4680BC704700E100E00C
:1009000080B483B000AF0346FB71FB7903F01F0393
:10091000012202FA03F1064A97F907305B092033F6
:1009200042F8231000BF0C37BD4680BC704700BFA3
:1009300000E100E080B400AF0D4B00221A700C4BB8
:1009400000225A700A4B00229A70094B0022DA707A
:10095000074B00221A71074B00221A70054B002228
:100960005A70044B00229A7000BFBD4680BC70478D
:10097000780A0020740A002080B400AF094B0022DE
:100980009A70084B0022DA70064B00221A71064B4F
:1009900000221A70044B00229A7000BFBD4680BC32
:1009A000704700BF780A0020740A002080B500AFAD
:1009B0000121022001F052FF0D4B1A680D4B92B23B
:1009C0001A850D4B1A680B4B92B29A85094B9B897D
:1009D0009BB2084A43F001039BB29381054B1B88ED
:1009E000044B00221A801D20FFF78AFF00BF80BD44
:1009F00014000020000400401800002080B500AF63
:100A0000074B1B889BB2064A43F001039BB213803D
:100A10001D20FFF75DFF034B01221A7000BF80BD50
:100A200000040040050A002080B500AF064B1B887B
:100A3000054B00221A801D20FFF762FF034B0022A6
:100A40001A7000BF80BD00BF00040040050A0020EE
:100A500080B500AF0121022001F000FF024B01220E
:100A60001A7000BF80BD00BF040A002080B500AF2F
:100A70000021022001F0F2FE024B00221A7000BF9A
:100A800080BD00BF040A0020B0B588B002AFA44BFF
:100A90001B88012B04D0A24B5B88012B40F0028104
:100AA0009F4B1B88012B02D10023FB8201E0012315
:100AB000FB829C4B1B689C4A1268B3FBF2F102FB61
:100AC00001F29B1A002B42D1FB8A984A32F813306C
:100AD000B3F5007F3BD08021954800F02CFA4FF40D
:100AE000FA7001F012FF0121924802F05EFA8021B3
:100AF0008F4800F012FA4FF4FA7001F006FFFC8AFA
:100B0000FB8A8A4A32F813301D461421894802F0C4
:100B10004DFB03461946884A63022B4422F8131002
:100B2000FB8A824A32F81320013291B27F4A22F8BE
:100B30001310FB8A7D4A32F81330B3F5007F06D1DB
:100B4000FB8A184600F044FB7C4B01229A70754BDF
:100B50001B687B4A1268B3FBF2F102FB01F29B1A9D
:100B6000002B42D1FB8A774A32F81330B3F5007F6D
:100B70003BD040216E4800F0DEF94FF4FA7001F0EE
:100B8000C4FE01216B4802F010FA4021684800F0D1
:100B9000C4F94FF4FA7001F0B8FEFC8AFB8A694A86
:100BA00032F813301D461421624802F0FFFA034662
:100BB0001946654A63022B4422F81310FB8A614AE6
:100BC00032F81320013291B25E4A22F81310FB8AE8
:100BD0005C4A32F81330B3F5007F06D1FB8A184621
:100BE00000F0F6FA554B01229A704E4B1B68574A9B
:100BF0001268B3FBF2F102FB01F29B1A002B51D1F8
:100C0000FB8A534A32F81330082B4BD001F090FE88
:100C100002464FF47A7303FB02F3002B01DA03F66A
:100C2000FF731B131C461821424802F0BFFA03460B
:100C300003FB04F3474AA2FB03239B093B6101F03A
:100C400077FE03465B09FB603A69FB68D21A1346DC
:100C50001B0113449B001A46FB68B2FBF3F35C08CC
:100C6000FB8AFA8A3A4931F812201046A1B23A4A70
:100C7000DB00034422F81310FB8A354A32F81320B4
:100C8000013291B2324A22F81310FB8A304A32F80C
:100C90001330082B06D1FB8A184600F099FA274B2F
:100CA00001229A701F4B1B682C4A1268B3FBF2F1A9
:100CB00002FB01F29B1A002B02D1204B01221A7079
:100CC000184B1B68264A1268B3FBF2F102FB01F2D3
:100CD0009B1A002B13D1234B1B680133214A13604D
:100CE000204B1A683B462049184601F0B6FC3A46AC
:100CF00000230093002300210820FFF75FFC094B2D
:100D00001B680133074A1360184B1B8A9BB2174AB2
:100D100023F001039BB2138200BF1837BD46B0BD5C
:100D2000200A00200C0A002000000020240A0020D5
:100D3000001001400024014028150020780A0020FE
:100D400004000020280A0020281D002008000020A0
:100D50002C0A0020D34D621008150020100000203E
:100D60000C000020080A0020585D00080004004024
:100D700080B489B000AF786039600023FB61002344
:100D80003B610023BB610023FB6000237B610023E8
:100D9000BB603B68DB7803F00F03FB613B68DB78EB
:100DA00003F01003002B05D03B689B781A46FB69C3
:100DB0001343FB613B681B88DBB2002B44D07B688C
:100DC0001B687B610023BB6138E00122BB6902FA2A
:100DD00003F3FB603B681B881A46FB6813403B61CA
:100DE0003A69FB689A4226D1BB699B00FB600F22DF
:100DF000FB6802FA03F3BB60BB68DB437A6913400C
:100E00007B61FA69FB6802FA03F37A6913437B6139
:100E10003B68DB78282B05D10122BB699A407B68AF
:100E20005A6108E03B68DB78482B04D10122BB699A
:100E30009A407B681A61BB690133BB61BB69072BB0
:100E4000C3D97B687A691A603B681B88FF2B46D937
:100E50007B685B687B610023BB613AE0BB69083358
:100E6000012202FA03F3FB603B681B881A46FB6809
:100E700013403B613A69FB689A4227D1BB699B00EA
:100E8000FB600F22FB6802FA03F3BB60BB68DB4325
:100E90007A6913407B61FA69FB6802FA03F37A69A5
:100EA00013437B613B68DB78282B05D1BB69083392
:100EB00001229A407B685A613B68DB78482B05D158
:100EC000BB69083301229A407B681A61BB69013310
:100ED000BB61BB69072BC1D97B687A695A6000BFC7
:100EE0002437BD4680BC704780B485B000AF7860C1
:100EF0000B467B800023FB737B689A687B881340DA
:100F0000002B02D00123FB7301E00023FB73FB7B6A
:100F100018461437BD4680BC704780B483B000AF1C
:100F200078600B467B807A887B681A6100BF0C373B
:100F3000BD4680BC704780B483B000AF78600B467C
:100F40007B807A887B685A6100BF0C37BD4680BCC5
:100F50007047000080B485B000AF03460A46FB71BD
:100F60001346BB710023FB60BB7903F003039B00B6
:100F70000F2202FA03F3FB60154ABB799B08DBB230
:100F8000023352F82320FB68DB431148B979890802
:100F9000C9B21A408B1C40F823200D4ABB799B082C
:100FA000DBB2023352F82320F979BB7903F0030353
:100FB0009B0001FA03F30648B9798908C9B21A43BC
:100FC0008B1C40F8232000BF1437BD4680BC7047FF
:100FD0000000014080B582B000AFFFF797F8012113
:100FE000042001F01DFC0121082001F019FC012161
:100FF000102001F015FC4FF40043BB801023FB715F
:101000000223BB713B1D19463748FFF7B1FE102381
:10101000BB801023FB710223BB713B1D1946334873
:10102000FFF7A6FE40F20143BB802823FB71022399
:10103000BB713B1D19462E48FFF79AFEC023BB80AB
:101040001023FB710123BB713B1D19462848FFF794
:101050008FFEC023BB801C23FB710323BB713B1D90
:1010600019462248FFF784FE4FF40073BB80282303
:10107000FB710223BB713B1D19461C48FFF778FE2C
:101080004FF44073BB801023FB710223BB713B1DE7
:1010900019461748FFF76CFE1E23BB800023FB7127
:1010A0000123BB713B1D19461148FFF761FE4FF448
:1010B0000073BB800323BB711823FB713B1D1946D2
:1010C0000948FFF755FE4FF48063BB800323BB71D3
:1010D0000423FB713B1D19460348FFF749FE00BF7F
:1010E0000837BD4680BD00BF00080140000C01402C
:1010F0000010014080B584B002AF0346FB80FB883E
:10110000174A002122F81310FB88164A002122F802
:101110001310FB88144A002122F81310134B1B886C
:10112000032B13D0FB88002B08D10023009300234E
:101130000F4A00214820FFF741FA07E000230093FF
:1011400000230B4A00215020FFF738FAFB88094A98
:10115000002122F8131000BF0837BD4680BD00BF34
:10116000240A0020280A00202C0A0020360A002029
:101170005C5D0008200A002080B584B002AF034601
:10118000FB80104B1B88032B13D0FB88002B08D14E
:101190000023009300230C4A00214820FFF70EFA99
:1011A00007E0002300930023074A00215020FFF7A7
:1011B00005FAFB88054A012122F8131000BF083701
:1011C000BD4680BD360A0020605D0008200A002070
:1011D00080B584B002AF0346FB80FB88194A32F821
:1011E0001330B3F5007F29D1FB88174A32F813304A
:1011F000B3F5007F22D1FB88144A32F81330082B54
:101200001CD1134B1B88032B13D0FB88002B08D158
:101210000023009300230F4A00214820FFF7CEF956
:1012200007E00023009300230A4A00215020FFF723
:10123000C5F9FB88084A022122F8131000BF0837BD
:10124000BD4680BD240A0020280A00202C0A002068
:10125000360A0020645D0008200A002080B586B0B0
:1012600002AF0346FB800023FB60494B1B78002B39
:1012700003D0484B01229A7086E0474B1B88012B14
:101280001DD0022B34D0002B00D05AE00023FB608D
:101290000DE0FB8841495A02FB68134431F81310F2
:1012A0003F4AFB6822F81310FB680133FB60FB68C0
:1012B000B3F5007FEDD33B4B01221A7041E00023D0
:1012C000FB600DE0FB8838495A02FB68134431F893
:1012D0001310334AFB6822F81310FB680133FB60DC
:1012E000FB68B3F5007FEDD32E4B01221A7028E086
:1012F0000023FB601EE02D4B00221A6013E0FA88E9
:10130000FB689901294B1B680B442948D100FA68F6
:101310000A4430F81210224A22F81310234B1B689B
:101320000133224A1360214B1B683F2BE7D9FB682E
:101330000133FB60FB68072BDDD91A4B01221A70C1
:1013400000BF144B0122DA70124B01221A71124BAA
:101350001B88032B13D0FB88002B08D1002300939C
:101360000023144A00214820FFF728F907E0002352
:10137000009300230F4A00215020FFF71FF9FB883C
:101380000D4A032122F813101037BD4680BD00BF5F
:10139000110A0020780A0020360A002028150020B3
:1013A000800D0020100A0020281D002000150020BC
:1013B00008150020685D0008200A002090B593B051
:1013C00002AFFFF707FEFFF7B5FA40219E48FFF78F
:1013D000A4FD80219C48FFF7A0FD4FF47A7001F036
:1013E0007FFA4FF480719848FFF797FD322001F0A3
:1013F00077FA4FF480719448FFF79DFD02F09CF856
:1014000002F0E8F801F094FA03469AB28F4B1A8082
:101410004FF480618C48FFF767FD0346002B2DD009
:101420008B4B01221A704FF400418A48FFF783FD6D
:10143000642001F055FAFFF7B9FAFFF709FB02F053
:1014400067F902F093F9FFF78BF9FEF719FF002314
:10145000814A19210020FFF73BF94FF4FA7001F09F
:101460003FFA0020FEF776FF7C4B01225A70FFF70F
:10147000C5FA02F01DFC02F045FC22E0FFF796FAE7
:1014800002F046F902F072F9FFF76AF9FEF7F8FE8A
:101490000023714A19210020FFF71AF94FF4FA705E
:1014A00001F01EFA0020FEF755FFFEF7F5FE02F0F0
:1014B000FFFB02F027FC02F06DF902F0B3F801F037
:1014C000FDF901F081FA654B5B78002B00F0098192
:1014D000624B00225A7001F02BFA03469AB25B4B22
:1014E0001A804FF480615848FFF7FEFC0346002B3A
:1014F00000F0C880564B01221A704FF40071584812
:10150000FFF7F2FC0346002B2DD1564B1B7883F0DE
:101510000103DBB2002B26D0642001F0E1F94FF487
:1015200000714F48FFF7E0FC0346002B1BD14D4BE9
:1015300001221A700020FEF70DFF00234A4A1021F5
:101540000A20FFF7C5F80023484A20210020FFF7B2
:10155000BFF84FF4FA7001F0C3F9454B01225A70FD
:101560000020FEF7F7FE4FF400713D48FFF7BCFC8A
:101570000346002B40D0354B1A883E4B1B889A42BD
:101580003AD24FF47A7001F0ABF94FF4007134485D
:10159000FFF7AAFC0346002B2ED02C4B1A88354BA4
:1015A0001B889A4228D22F4B00221A700020FEF787
:1015B000D1FE0023304A10210C20FFF789F80023C8
:1015C0002E4A20210A20FFF783F84FF400412148DA
:1015D000FFF7A3FC4FF47A7001F082F94FF4004159
:1015E0001C48FFF7A8FC1D4B01225A700020FEF793
:1015F000B1FE1F4B00225A704FF400711848FFF7DC
:1016000073FC0346002B6CD0104B1A88194B1B88B7
:101610009A4266D3134B00221A700020FEF79AFEFE
:101620000023114A10210A20FFF752F80023144A20
:1016300020210020FFF74CF84FF4FA7001F050F928
:101640000B4B00225A704CE000100140300A002081
:10165000350A0020000801406C5D0008780A00206F
:10166000000C0140060A0020785D0008805D00083B
:10167000740A0020E80500208C5D0008945D0008D5
:10168000A05D0008A04B1B78002B18D09E4B0022B9
:101690001A700020FEF75EFE00239C4A10210A20EB
:1016A000FFF716F800239A4A20210020FFF710F8D0
:1016B0004FF4FA7001F014F90020FEF74BFE924B44
:1016C00000221A70934B00221A70934B00225A701A
:1016D000924B1B7883F00103DBB2002B01D001F0A9
:1016E00085FA8F4B1B78002B5BD08D4B00221A7034
:1016F0000023FB6301F01CF903469AB2894B1A8060
:10170000844B1B781C464FF480618748FFF7ECFB45
:1017100003469C4202D0824B01225A70814B1A88A8
:10172000824B1B889A422ED27A4B1B7883F001039E
:10173000DBB2002B27D00023FB6319E00020FEF76B
:1017400009FE4FF4FA7001F0CBF80023784A10211B
:101750000A20FEF7BDFF0023764A20210020FEF775
:10176000B7FF4FF4FA7001F0BBF8FB6B0133FB637A
:10177000FB6B042BE2D90020FEF7ECFDFFF754F9D8
:1017800001F034FA0DE0654B1B78002B09D0624B59
:101790001B7883F00103DBB2002B02D05E4B0122E9
:1017A0001A705F4B9B78002B67D05D4B00229A70BC
:1017B000614B1B88002B03D15F4B5B88002B0FD044
:1017C0005D4B1B88002B03D15B4B5B88022B07D042
:1017D000594B1B88002B06D1574B5B88032B02D13A
:1017E0000020FFF7C9FC544B1B88022B03D1524B3E
:1017F0005B88002B07D0504B1B88032B06D14E4B28
:101800005B88002B02D10120FFF7B6FC4A4B1B88F6
:10181000022B03D1484B5B88012B07D0464B1B881A
:10182000022B06D1444B5B88022B02D10020FFF72C
:1018300015FD414B1B88012B06D13F4B5B88022BCA
:1018400002D10120FFF70AFD3B4B1B88012B03D17E
:10185000394B5B88012B07D0374B1B88032B0CD1EE
:10186000354B5B88032B08D10020FFF743FC012098
:10187000FFF740FC2A4B01229A70294B1B79002B61
:1018800000F02482264B00221A710023BB63224BF6
:101890009B78002B00F03881284B1B88032B00F02D
:1018A0003381274B1B78002B00F024810023BB637E
:1018B0001BE0244B00221A6010E0224B19682248DA
:1018C000BA6B13465B0013445B0003440B440022D5
:1018D0001A701C4B1B6801331A4A1360194B1B68A2
:1018E000052BEAD9BB6B0133BB63BB6B7F2BE0D904
:1018F0004FF40073FB840023FB8642F21073BB8617
:101900000023BB633DE000BF060A0020785D0008AD
:10191000AC5D0008350A0020740A0020340A00205B
:10192000780A0020300A002000100140EA0500205B
:10193000B85D0008C05D0008200A0020360A0020BB
:10194000100A00200015002080110020AE4ABB6B59
:1019500032F81330FA8E9A4204D2AB4ABB6B32F89B
:101960001330FB86A84ABB6B32F81330BA8E9A420A
:1019700004D9A54ABB6B32F81330BB86BB6B01336D
:10198000BB63FB8CBA6B9A42E0D3BA8EFB8E07F135
:101990000C009E4900F061FE07F10C020023009349
:1019A000002301210020FEF709FEFA8EBB8ED31A18
:1019B0004FF4805292FBF3F3BB840023BB6311E02E
:1019C000914ABB6B32F81320BB8ED31A9BB2BA8CF0
:1019D00002FB03F399B28C4ABB6B22F81310BB6B6A
:1019E0000133BB63FB8CBA6B9A42E9D30023BB6320
:1019F0004FE0BB6B9B00844A32F813301946BB6B37
:101A00009B000133804A32F813300B44BA6B9200CA
:101A100002327D4931F812201344BA6B920003322E
:101A2000794931F812201344794A82FB031292114A
:101A3000DB179B1A9BB22F337B847B8CDB083B84A8
:101A40007B8CDB439BB203F00703FB83398C71482B
:101A5000BA6B13465B0013445B0003440B441B78D2
:101A60005AB2FB8BC3F10703012101FA03F35BB206
:101A700013435BB2398CDCB26648BA6B13465B0029
:101A800013445B0003440B4422461A70BB6B0133C2
:101A9000BB63BB6B7F2BACD900233B630023BB63D1
:101AA00022E05D4B00221A6017E05B4B1A6859492F
:101AB00013465B0013445B00CA18BB6B13441978D0
:101AC000564A3B6B13440A461A703B6B01333B6327
:101AD000514B1B680133504A13604F4B1B687F2BDF
:101AE000E3D9BB6B0133BB63BB6B052BD9D94C4B23
:101AF00000221A7000230193484B00933023802268
:101B000010210020FEF76AFC464B1B78002B00F0EA
:101B1000BF8000F00DFFB861434B1B7883F00103D9
:101B2000DBB2002B57D0BB6940F63C72934209DD13
:101B3000002301933D4B00931023202200216020BD
:101B4000FEF74CFCBB6940F6D86293420EDDBB69E0
:101B500040F63C72934209DC00230193344B00931E
:101B60001023202200216020FEF738FCBB6940F6DC
:101B7000746293420EDDBB6940F6D862934209DC81
:101B8000002301932B4B009310232022002160207F
:101B9000FEF724FCBB69B3F5616F0EDDBB6940F64F
:101BA000D862934209DC00230193234B0093102356
:101BB000202200216020FEF711FCBB69B3F5616FA4
:101BC00009DC002301931D4B0093102320220021E8
:101BD0006020FEF703FC1A4B1B88032B4FD801A291
:101BE00052F823F0F51B0008491C00085B1C000894
:101BF0006D1C0008002300930023124A00210020DE
:101C0000FEF7DCFC45E000BF800D0020CC5D000845
:101C100083BEA02F8011002000150020800A002024
:101C2000100A0020740A0020060A0020200000206C
:101C300060000020A0000020E00000202001002023
:101C4000360A0020D45D00080023009300239C4A3C
:101C500000210020FEF7B2FC1BE0002300930023CC
:101C6000984A00210020FEF7A9FC12E0002300930F
:101C70000023954A00210020FEF7A0FC09E0002384
:101C800000930023914A00210020FEF797FC00E01A
:101C900000BF8F4B5B78002B18D08E4B1B78002B2E
:101CA0000AD0002301938C4B0093102320220021A3
:101CB0006020FEF793FB09E000230193864B00931D
:101CC0001023202200216020FEF788FB834BDB7865
:101CD000002B3FF4F8AB814B0022DA70804B1B885D
:101CE000012B35D100F03CF900F092F94FF4FA7075
:101CF00000F0F6FD0E217B4800F0C2F9642000F0F0
:101D0000EFFD0921784800F0BBF9642000F0E8FD00
:101D10000921764800F0B4F9642000F0E1FD0921C2
:101D2000734800F0ADF9642000F0DAFD0921704835
:101D300000F0A6F9642000F0D3FD10216D4800F0FA
:101D40009FF94FF4E13000F041F9654B00221A8011
:101D5000694B1B88032B04D0674B5B88032B7FF4F4
:101D6000B2AB5F4B1B88002B7FF4ADAB0023BB6293
:101D7000614B1B88032B02D10023FB8501E001236B
:101D8000FB855E4B01221A700023009300235C4AFE
:101D900000215820FEF712FC08215A4800F070F983
:101DA000594B1A683B465949184600F056FC3B46C9
:101DB000184602F017FB02463B461146184600F053
:101DC0005FF90721524800F05BF90023BB6219E07C
:101DD000FB8D50495A02BB6A134431F813301A463E
:101DE0003B464A49184600F038FC3B46184602F08C
:101DF000F9FA02463B461146184600F041F9BB6A23
:101E00000133BB62BB6AB3F5007FE1D306214248D0
:101E100000F036F90023BB6219E0FB8D3F495A02FE
:101E2000BB6A134431F813301A463B46374918460B
:101E300000F013FC3B46184602F0D4FA02463B463B
:101E40001146184600F01CF9BB6A0133BB62BB6A3D
:101E5000B3F5007FE1D30721314800F011F90023E9
:101E6000BB6219E0FB8D2F49DA00BB6A134431F8DD
:101E700013301A463B462549184600F0EEFB3B4618
:101E8000184602F0AFFA02463B461146184600F0EB
:101E9000F7F8BB6A0133BB62BB6A072BE2D9174B69
:101EA00000221A700023009300231F4A00215820AB
:101EB000FEF784FBFB8D1846FFF71CF9FFF703BB09
:101EC000D85D0008DC5D0008E05D0008E45D000806
:101ED000740A0020340A002060010020780A0020E3
:101EE000A0010020E85D0008F85D0008045E00081D
:101EF000105E00081C5E0008200A0020110A002065
:101F0000305E0008345E0008080A00203C5E0008CD
:101F1000405E000828150020485E0008281D0020AB
:101F2000505E000808150020585E000880B483B099
:101F300000AF0346FB71FB7903F01F03012202FA95
:101F400003F1064A97F907305B09203342F8231062
:101F500000BF0C37BD4680BC704700BF00E100E009
:101F600080B586B000AF174B31221A7025233B7520
:101F700000237B750023BB750123FB7507F1140358
:101F8000184601F063FB01214FF4804000F048FC4B
:101F900000233B814FF416537B6000237B81002399
:101FA000BB8100233B820C23FB813B1D1946064865
:101FB00001F02CF90121044801F0E2F900BF1837C3
:101FC000BD4680BD801400200038014080B586B039
:101FD00000AF786000F036F80023BB817B68BB60FF
:101FE0000023FB814FF480633B820023BB820C23E0
:101FF0007B8207F108031946044801F007F900F055
:1020000007F800BF1837BD4680BD00BF003801404B
:1020100080B500AF01214FF4804000F001FC0122A7
:1020200040F22551054801F0CAF90121034801F0A9
:10203000A7F9034B01221A7000BF80BD0038014090
:10204000120A002080B500AF00210B4801F098F97A
:10205000002240F22551084801F0B1F92520FFF790
:1020600065FF00214FF4804000F0DAFB034B0022B3
:102070001A7000BF80BD00BF00380140120A002066
:1020800080B582B000AF7860396010E07B685A1C80
:102090007A601B789BB21946094801F0D7F900BF56
:1020A0004021074801F0F2F90346002BF8D03B68C5
:1020B0005A1E3A60002BE9D100BF0837BD4680BDEB
:1020C0000038014080B500AF134B1B889BB203F072
:1020D0002003002B1ED040F225510F4801F0F1F9EA
:1020E0000E4B1B785BB2002B11DB0B4801F0BFF9E4
:1020F00003461946094B1B781A46C9B2084B995436
:10210000064B1B780133DAB2044B1A7002E0034B22
:1021100000221A7000BF80BD00380140A2010020DB
:102120008014002080B483B000AF78600B46FB7051
:102130007B68FA781A70012318460C37BD4680BCBC
:10214000704780B485B000AF786039600023FB60D1
:102150000AE03A68531C3B607B68591C796012782E
:102160001A70FB680133FB603B681B78002BF0D1D1
:10217000FB6818461437BD4680BC704780B586B0F2
:1021800000AFF8607A603B600B46FB7200237B6116
:102190007B68013B7B603B68092B1DD93B681D4A6E
:1021A000A2FB0323DB08F97A7A68F868FFF7E6FFF9
:1021B00078617B69FA681344FB6010E0FB7A19468A
:1021C000F868FFF7AFFFFB680133FB607B69013301
:1021D0007B617B68013B7B607B68002BEEDC3968B0
:1021E0000C4BA3FB0123DA0813469B0013445B004E
:1021F000CA1AD3B23033DBB21946F868FFF792FF40
:1022000002467B6913447B617B6918461837BD46DB
:1022100080BD00BFCDCCCCCC80B586B000AFF8601F
:102220007A603B600B46FB7200237B613B68002BAE
:1022300003DA3B685B423B6101E03B683B617B68E2
:10224000013B7B603B69092B1FD93B68002B0CDAF3
:102250003B692E4AA2FB0323DB085B42F97A7A68CA
:10226000F868FFF7D9FF78610AE03B69274AA2FBCB
:102270000323DB08F97A7A68F868FFF7CDFF786105
:102280007B69FA681344FB6025E03B68002B11DA98
:102290007B68013B7B600DE0FB7A1946F868FFF72D
:1022A00041FFFB680133FB607B6901337B617B6825
:1022B000013B7B607B68002BEEDC3B68002B0ADA7D
:1022C0002D21F868FFF72EFF02467B6913447B61DE
:1022D000FB680133FB6039690C4BA3FB0123DA086F
:1022E00013469B0013445B00CA1AD3B23033DBB2EF
:1022F0001946F868FFF716FF02467B6913447B61B5
:102300007B6918461837BD4680BD00BFCDCCCCCC0C
:1023100080B588B002AFF8607A601A460B46FB724F
:102320001346BB7200237B617B68013B7B603B6A89
:102330001B09002B20D03B6A1B09BA7AF97A00935B
:1023400013467A68F868FFF7E3FF02467B69134497
:102350007B617B69FA681344FB6010E0FB7A1946E5
:10236000F868FFF7DFFEFB680133FB607B69013330
:102370007B617B68013B7B607B68002BEEDC3B6A0A
:1023800003F00F03092B0BD83B6ADBB203F00F03FA
:10239000DBB23033DBB21946F868FFF7C3FE19E051
:1023A000BB7A002B0BD03B6ADBB203F00F03DBB22E
:1023B0003733DBB21946F868FFF7B4FE0AE03B6A30
:1023C000DBB203F00F03DBB25733DBB21946F86818
:1023D000FFF7A8FE7B6901337B617B6918461837DC
:1023E000BD4680BD80B58AB002AFF860B9607A6042
:1023F0003B600023BB6100237B61FB68002B00F086
:10240000FC80FB6800221A70F7E07B681B78252BA4
:102410000BD07A68531C7B60FB68591CF9601278FA
:102420001A707B6901337B61E7E07B6801331B78BD
:10243000252B0BD1FB685A1CFA6025221A707B6889
:1024400002337B607B6901337B61D6E02023FB771D
:102450000023BB777B6801337B607B681B78302B64
:1024600014D13023FB777B6801337B600EE0BB7FA8
:102470001A46920013445B00DAB27B681B7813445F
:10248000DBB2303BBB777B6801337B607B681B78BA
:102490002F2B03D97B681B78392BE8D9BA7F7B694E
:1024A00013441A46BB68934205D2BB68DAB27B6913
:1024B000DBB2D31ABB777B681B78583B202B00F22A
:1024C0008E8001A252F823F099250008DF2500082C
:1024D000DF250008DF250008DF250008DF250008CC
:1024E000DF250008DF250008DF250008DF250008BC
:1024F000DF250008C92500084D250008DF25000854
:10250000DF250008DF250008DF2500084D2500082D
:10251000DF250008DF250008DF250008DF2500088B
:10252000DF250008DF250008DF250008DF2500087B
:10253000DF250008B5250008DF250008652500080F
:10254000DF250008DF2500087D250008B87F3B68EF
:102550001A1D3A601B68F97F0246F868FFF75CFEB7
:10256000B8613FE0B87F3B681A1D3A601B68F97F8D
:102570000246F868FFF702FEB86133E0B87F3B68B7
:102580001A1D3A601B68F97F009300230246F86821
:10259000FFF7BEFEB86125E0B87F3B681A1D3A60C0
:1025A0001B68F97F009301230246F868FFF7B0FE2D
:1025B000B86117E03B681A1D3A601B681946F86855
:1025C000FFF7BFFDB8610DE03B681A1D3A601B685C
:1025D000DBB21946F868FFF7A5FDB86102E04FF0DD
:1025E000FF3325E07B6801337B60BB69FA681344E5
:1025F000FB607A69BB6913447B617B681B78002BA5
:1026000004D07B69BA689A423FF6FFAE7B69BA682C
:102610009A4203D9FB6800221A7008E0FB68013B6C
:10262000FB60FB6800221A707B69013B7B617B6960
:1026300018462037BD4680BD80B584B000AFF86035
:10264000B9607A607B68BA686421F868FFF7CAFEEF
:10265000034618461037BD4680BD0EB480B585B020
:1026600000AF786007F12003BB60BA68F969786849
:10267000FFF7E2FFF860FB6818461437BD46BDE877
:10268000804003B07047000080B485B000AF786030
:102690000023FB60094B5B68FB60FB6823F440434D
:1026A000FB60FA687B681343FB60044AFB68536075
:1026B00000BF1437BD4680BC704700BF0010024009
:1026C00080B487B000AF786000237B6100233B615A
:1026D0000023FB600023BB604C4B5B6803F00C03E2
:1026E0007B617B69042B07D0082B09D0002B33D1E9
:1026F0007B68474A1A6033E07B68454A1A602FE0DE
:10270000424B5B6803F470133B61404B5B6803F41E
:102710008033FB603B699B0C02333B61FB68002B01
:1027200006D13B693B4A02FB03F27B681A6017E063
:10273000364B5B6803F40033002B06D03B69354A07
:1027400002FB03F27B681A600AE03B69304A02FB35
:1027500003F27B681A6003E07B682D4A1A6000BFB1
:102760002A4B5B6803F0F0037B617B691B097B618B
:10277000294A7B6913441B78DBB2BB607B681A680B
:10278000BB68DA407B685A60204B5B6803F4E06307
:102790007B617B691B0A7B611F4A7B6913441B7841
:1027A000DBB2BB607B685A68BB68DA407B689A60C2
:1027B000164B5B6803F460537B617B69DB0A7B61CA
:1027C000154A7B6913441B78DBB2BB607B685A688F
:1027D000BB68DA407B68DA600C4B5B6803F440430B
:1027E0007B617B699B0B7B610C4A7B6913441B7883
:1027F000DBB2BB607B68DA68BB68B2FBF3F27B6874
:102800001A6100BF1C37BD4680BC704700100240F3
:1028100000127A0000093D00D4050020E4050020E4
:1028200080B483B000AF78600B46FB70FB78002B60
:1028300006D0094B9A6908497B6813438B6106E00F
:10284000054B9A697B68DB43034913408B6100BFEA
:102850000C37BD4680BC70470010024080B483B086
:1028600000AF78600B46FB70FB78002B06D0094B5D
:10287000DA6908497B681343CB6106E0054BDA69E6
:102880007B68DB4303491340CB6100BF0C37BD4677
:1028900080BC70470010024080B500AF01210420C9
:1028A000FFF7BEFF01210820FFF7BAFF024B01220C
:1028B0001A7000BF80BD00BF140A002080B500AFB1
:1028C00000210420FFF7ACFF00210820FFF7A8FF3C
:1028D000024B00221A7000BF80BD00BF140A002006
:1028E00080B483B000AF78607B6842F2283202FB8C
:1028F00003F37B6000BF7B685A1E7A60002BFAD11D
:1029000000BF0C37BD4680BC704780B483B000AFB9
:1029100078607B68DB007B6000BF7B685A1E7A6052
:10292000002BFAD100BF0C37BD4680BC70470000B9
:1029300080B582B000AF0023FB801E4B00221A60DE
:1029400019E001211C4800F030FB00BF04211A48A7
:1029500000F043FC0346002BF8D02021164800F07D
:1029600025FC03461A46FB881344FB80114B1B6869
:102970000133104A13600F4B1B68022BE1D9FB880F
:102980000E4AA2FB03235B089BB21A460C4B93FB37
:10299000F2F34FF47D6202FB03F30A4A82FB031257
:1029A0009211DB17D31AFB80FB8818460837BD4607
:1029B00080BD00BF0415002000240140ABAAAAAAD4
:1029C00040771B00D34D621080B500AF774B1B786A
:1029D00083F00103DBB2002B01D0FFF75DFF744BE6
:1029E0001B7883F00103DBB2002B01D000F0F2FD75
:1029F000704B1B7883F00103DBB2002B01D000F099
:102A0000B5FE6D4B1B7883F00103DBB2002B01D0C8
:102A1000FDF736FC694B1B7883F00103DBB2002B1A
:102A200001D0FEF715F8664B01229A70654B1B78B2
:102A3000002B47D0644B01221A700023634A1921EE
:102A40001E20FDF745FE4FF400716148FEF765FA60
:102A50004FF480715E48FEF760FA6420FFF740FF94
:102A60004FF480715A48FEF766FA4FF4FA70FFF798
:102A700037FF0020FDF76EFCFFF7CAFA0020FEF7D3
:102A800039FB0120FEF736FB4F4B01229A704E4B6B
:102A900001221A704C4B01225A704B4B01221A71C1
:102AA000494B0122DA70FFF7B3FA4A4B01221A7040
:102AB000494B1B7883F00103DBB2002B73D0FDF789
:102AC0009DFF70E0FFF734FF03461A46434B1B8817
:102AD0009A4226D2424B00221A601BE00020FDF7EA
:102AE00039FC4FF4FA70FFF7FBFE00233D4A10213A
:102AF0000A20FDF7EDFD00233B4A20210020FDF7D1
:102B0000E7FD4FF4FA70FFF7EBFE354B1B6801331E
:102B1000334A1360324B1B68042BDFD900F066F890
:102B200041E00023294A19211E20FDF7D1FD4FF471
:102B300000712748FEF7F1F94FF480712448FEF741
:102B4000ECF93220FFF7CCFE4FF480712048FEF7FD
:102B5000F2F94FF4FA70FFF7C3FE0020FDF7FAFB1D
:102B6000FFF756FA0020FEF7C5FA0120FEF7C2FA79
:102B7000154B01229A70144B01221A70124B01223C
:102B80005A70114B01221A710F4B0122DA70114B4E
:102B900001221A70104B1B7883F00103DBB2002B6B
:102BA00001D0FDF72BFF00BF80BD00BF140A00203D
:102BB0001C0A0020320A0020000A0020040A00201B
:102BC000740A0020350A0020780A00205C5E0008A4
:102BD00000100140340A0020050A0020EA05002008
:102BE00004150020645E00086C5E000880B500AF2C
:102BF000364B1B78002B15D00020FDF7ABFB0023D4
:102C0000334A19212820FDF763FD4FF480713148C4
:102C1000FEF783F96420FFF763FE4FF480712D48BF
:102C2000FEF789F9294B00221A702B4B1B78002BD9
:102C300017D0FDF7A1FEFFF705FAFDF7F5FEFDF74A
:102C400015FF264B00221A604FF400712148FEF751
:102C500072F94FF47A70FFF743FE0020FDF77AFB1C
:102C600031E01A4B00221A70FDF764FEFFF7EAF913
:102C70004FF400711748FEF75EF9FDF7D5FEFDF73A
:102C8000F5FE164B00221A604FF47A70FFF728FE0B
:102C90000020FDF75FFB124B1B78002B01D0FDF7E6
:102CA000FBFA104B1B78002B01D000F073FD0E4B8C
:102CB0001B78002B01D000F0B5FC0C4B1B78002BCF
:102CC00001D0FFF7FBFD00BF80BD00BF340A00202C
:102CD000785E000800100140060A0020080A002063
:102CE000000A0020320A00201C0A0020140A0020DA
:102CF00080B485B000AF78600023FB60344BFB608C
:102D00007B689B79002B4FD0314B1A687B681B681E
:102D1000DB432F4913400B602D4B5A687B681B68BF
:102D2000DB432B4913404B607B681B791A46FB68D9
:102D30001344FB60FB6819687B681A68FB680A43E8
:102D40001A60234B9A687B681B68DB432049134059
:102D50008B601F4BDA687B681B68DB431C491340A0
:102D6000CB607B685B79102B0ED1194B9A687B681E
:102D70001B68174913438B60154BDA687B681B6827
:102D800013491343CB601DE0114BFB607B685B79FB
:102D90001A46FB681344FB60FB6819687B681A6875
:102DA000FB680A431A600DE07B681B791A46FB68D2
:102DB0001344FB60FB6819687B681B68DA43FB6897
:102DC0000A401A6000BF1437BD4680BC704700BF80
:102DD0000004014080B485B000AF78600023FB732D
:102DE0000023BB600C4B1B687A681340BB600A4B26
:102DF0005A697B681340002B05D0BB68002B02D0BA
:102E00000123FB7301E00023FB73FB7B184614379F
:102E1000BD4680BC704700BF0004014080B483B051
:102E200000AF7860034A7B68536100BF0C37BD4632
:102E300080BC70470004014080B485B000AF78606A
:102E400039600023FB600023FB727B685B68FB60DA
:102E5000FB6823F4702323F48073FB603B681A68DB
:102E60003B681B791B021343FA681343FB607B68C2
:102E7000FA685A607B689B68FB60FA68164B1340DF
:102E8000FB603B68DA683B689B681A433B685B7988
:102E90005B001343FA681343FB607B68FA689A602F
:102EA0007B68DB6AFB60FB6823F47003FB603B68B4
:102EB0001B7C013BDAB2FB7A1343FB72FB7A1B05E6
:102EC000FA681343FB607B68FA68DA6200BF143764
:102ED000BD4680BC704700BFFDF7F1FF80B483B0F2
:102EE00000AF78600B46FB70FB78002B06D07B6848
:102EF0009B6843F001027B689A6005E07B689B68F1
:102F000023F001027B689A6000BF0C37BD4680BC8D
:102F1000704780B483B000AF78607B689B6843F0F3
:102F200008027B689A6000BF0C37BD4680BC7047C2
:102F300080B485B000AF78600023FB737B689B682A
:102F400003F00803002B02D00123FB7301E00023F0
:102F5000FB73FB7B18461437BD4680BC704780B4BA
:102F600083B000AF78607B689B6843F004027B68A5
:102F70009A6000BF0C37BD4680BC704780B485B0F6
:102F800000AF78600023FB737B689B6803F0040349
:102F9000002B02D00123FB7301E00023FB73FB7BBA
:102FA00018461437BD4680BC704780B483B000AF6C
:102FB00078600B46FB70FB78002B06D07B689B6823
:102FC00043F4A0027B689A6005E07B689B6823F469
:102FD000A0027B689A6000BF0C37BD4680BC70477A
:102FE00080B483B000AF78600B46FB70FB78002B99
:102FF00006D07B685B6843F480627B685A6005E0BA
:103000007B685B6823F480627B685A6000BF0C3782
:10301000BD4680BC704780B485B000AF7860396031
:103020000023FB607B689B68FB60FB6823F4E04344
:10303000FB60FA683B681343FB607B68FA689A6040
:1030400000BF1437BD4680BC704780B487B000AF66
:103050007860084611461A460346FB700B46BB7063
:1030600013467B7000237B6100233B610023FB60E0
:10307000FB78092B23D97B68DB687B61FB78A3F1A4
:103080000A0213465B001344072202FA03F33B6172
:103090003B69DB437A6913407B617978FB78A3F164
:1030A0000A0213465B00134401FA03F33B617A6999
:1030B0003B6913437B617B687A69DA601EE07B6859
:1030C0001B697B61FA7813465B001344072202FAFE
:1030D00003F33B613B69DB437A6913407B61797899
:1030E000FA7813465B00134401FA03F33B617A69F3
:1030F0003B6913437B617B687A691A617B689B6BD0
:103100007B617B691B0D03F00303FB60FB68DBB293
:10311000BA78D31ADBB20233DBB21A4613469B00ED
:1031200013441F2202FA03F33B613B69DB437A69D4
:1031300013407B61FA78FB68DBB2B978CB1ADBB25B
:103140000233DBB219460B469B000B4402FA03F331
:103150003B617A693B6913437B617B687A699A6357
:1031600000BF1C37BD4680BC704780B485B000AF3F
:1031700078600B46FB700023FB600023BB607B681C
:103180009B6BFB60FB6823F44013FB60FB78013B07
:10319000BB60BB681B05FA681343FB607B68FA6879
:1031A0009A6300BF1437BD4680BC704780B485B0B9
:1031B00000AF78600B46FB700023FB607B68FB6010
:1031C000FA78FB6813442833FB60FB681B689BB2EA
:1031D00018461437BD4680BC704780B485B000AF38
:1031E00078600B46FB700023FB737B681A68FB78E2
:1031F0001340002B02D00123FB7301E00023FB737B
:10320000FB7B18461437BD4680BC704780B58CB038
:1032100000AF786039600023FB620023BB620023AB
:103220007B6200233B620023FB617B68FB617B6860
:103230001B8A9BB2FB62FA6A4CF6FF731340FB6277
:103240003B68DB881A46FB6A1343FB62FB6A9AB24F
:103250007B681A827B689B899BB2FB62FA6A4EF696
:10326000F3131340FB623B689A883B681B89134346
:103270009AB23B685B8913439BB21A46FB6A1343BD
:10328000FB62FB6A9AB27B689A817B689B8A9BB2DD
:10329000FB62FA6A4FF6FF431340FB623B689B896F
:1032A0001A46FB6A1343FB62FB6A9AB27B689A82F6
:1032B00007F108031846FFF703FAFB692E4A934209
:1032C00002D17B69BB6201E03B69BB627B689B8981
:1032D0009BB21BB2002B0CDABA6A13469B00134454
:1032E0009A001A443B681B685B00B2FBF3F37B62F5
:1032F0000BE0BA6A13469B0013449A001A443B68D9
:103300001B689B00B2FBF3F37B627B6A1B4AA2FB48
:1033100003235B091B01FB62FB6A1B09642202FB9E
:1033200003F37A6AD31A3B627B689B899BB21BB218
:10333000002B0CDA3B6ADB003233104AA2FB03237A
:103340005B0903F00703FA6A1343FB620BE03B6A75
:103350001B013233094AA2FB03235B0903F00F036D
:10336000FA6A1343FB62FB6A9AB27B681A8100BF58
:103370003037BD4680BD00BF003801401F85EB518E
:1033800080B483B000AF78600B46FB70FB78002BF5
:1033900008D07B689B899BB243F400539AB27B6848
:1033A0009A8107E07B689B899BB223F400539AB211
:1033B0007B689A8100BF0C37BD4680BC704780B4E3
:1033C00087B000AF78600B467B8013467B7000238C
:1033D0003B610023FB600023BB6000237B617B68B3
:1033E0007B617B88DBB25B09DBB23B617B8803F0EE
:1033F0001F03FB600122FB6802FA03F3BB603B6919
:10340000012B03D17B690C337B6109E03B69022B03
:1034100003D17B6910337B6102E07B6914337B61EC
:103420007B78002B06D07B6919687B69BA680A43F0
:103430001A6006E07B691968BB68DA437B690A4059
:103440001A6000BF1C37BD4680BC704780B483B093
:1034500000AF78600B467B807B88C3F308039AB289
:103460007B689A8000BF0C37BD4680BC704780B433
:1034700083B000AF78607B689B889BB2C3F308037E
:103480009BB218460C37BD4680BC704780B485B0EF
:1034900000AF78600B467B800023FB737B681B8842
:1034A0009AB27B8813409BB2002B02D00123FB739E
:1034B00001E00023FB73FB7B18461437BD4680BC3C
:1034C000704780B485B000AF78600B467B800023E6
:1034D000FB810023BB817B881B0AFB81FB890122C6
:1034E00002FA03F3BB81BB89DB439AB27B681A8083
:1034F00000BF1437BD4680BC7047000080B485B063
:1035000000AF78600A4B1B68002B02D1084B094AB8
:103510001A60074B1B68FB60054B1A687B681344F5
:10352000034A1360FB6818461437BD4680BC7047D9
:10353000180A00205025002080B586B000AF4FF457
:103540000040FFF7A1F801214FF40070FFF768F980
:1035500000237B6001233B7200237B724FF46023C6
:10356000FB6000233B6104233B753B1D1946184853
:10357000FFF762FC04211648FFF7F7FD072301223D
:103580000B211348FFF761FD072302220C2110488D
:10359000FFF75BFD012303220D210D48FFF755FDC9
:1035A000012304220E210A48FFF74FFD4FF4E041AA
:1035B0000748FFF730FD01210548FFF711FD002105
:1035C0004FF40070FFF72CF900BF1837BD4680BDDF
:1035D0000024014080B500AF01214FF40070FFF7D7
:1035E0001FF901210D48FFF779FC0C48FFF791FC0A
:1035F00000BF0A48FFF79CFC0346002BF9D107489F
:10360000FFF7ADFC00BF0548FFF7B8FC0346002BF1
:10361000F9D1034B01221A7000BF80BD0024014084
:103620001C0A002080B500AF00210648FFF756FCB9
:1036300000214FF40070FFF7F3F8034B00221A70DB
:1036400000BF80BD002401401C0A002080B487B068
:1036500000AF786000237B6100233B610F23FB6098
:103660007B68DB78002B3AD0274BDB68DB431B0AF7
:1036700003F007037B617B69C3F104033B61FA68D4
:103680007B6922FA03F3FB607B685B781A463B692F
:1036900002FA03F37B617B689B781A46FB68134050
:1036A0007A6913437B617B691B017B61174A7B68E5
:1036B0001B787969C9B213440A4683F800237B68F2
:1036C0001B7803F01F0311497A6812785209D2B2AD
:1036D0001046012202FA03F341F820300FE07B6824
:1036E0001B7803F01F0309497A6812785209D2B295
:1036F000104601229A4000F1200341F8232000BF28
:103700001C37BD4680BC704700ED00E000E100E0E2
:1037100080B584B000AF01214FF40010FFF79EF890
:103720003B46184600F07AF90023BB804BF6FF7346
:10373000FB800C4B3B6000233B814FF480637B811B
:103740004FF48043BB813B461946074800F0A4F87C
:1037500000214FF40010FFF781F800BF1037BD467D
:1037600080BD00BF40420F000054004080B500AF54
:1037700001214FF40010FFF771F80121034800F018
:103780006BF9034B01221A7000BF80BD005400404A
:10379000320A002080B500AF0021064800F05CF935
:1037A00000214FF40010FFF759F8034B00221A7064
:1037B00000BF80BD00540040320A002080B582B0B6
:1037C00000AF0346FB7100BF4FF40031114800F019
:1037D000FBF90346002BF7D101210E4800F05BF9FD
:1037E00000BF0D490B4800F0C0F90346002BF8D08C
:1037F000FB7900221946074800F09AF900BF0749F3
:10380000044800F0B2F90346002BF8D000BF083797
:10381000BD4680BD00540040010003008200070047
:1038200080B584B000AF78600B46FB700023FB606E
:1038300012E07A68FB6813441B7819460A4800F0C6
:1038400068F900BF0949084800F08FF90346002BCA
:10385000F8D0FB680133FB60FB78FA689A42E8D342
:1038600000BF1037BD4680BD0054004084000700F3
:1038700080B500AF0121074800F02CF900BF4FF4DC
:103880000031044800F0A0F90346002BF7D100BF37
:1038900080BD00BF0054004080B58AB000AF7860A2
:1038A00039600023FB8400237B840423BB84574BB3
:1038B000FB617B689B88FB84FB8C23F03F03FB84CC
:1038C00007F108031846FEF7FBFE3B69FB61FB6945
:1038D0004F4AA2FB03239B0C7B84FA8C7B8C134303
:1038E000FB847B68FA8C9A807B681B889BB223F0F0
:1038F00001039AB27B681A800023FB843B681B6833
:10390000444A934215D83B681B685B00FA69B2FBD6
:10391000F3F3BB84BB8C032B01D80423BB84FA8C48
:10392000BB8C1343FB847B8C01339AB27B681A8473
:1039300040E03B68DB884BF6FF72934209D13B685D
:103940001A6813465B001344FA69B2FBF3F3BB84B5
:103950000EE03B681A6813469B0013449A00134418
:10396000FA69B2FBF3F3BB84BB8C43F48043BB84A2
:10397000BB8CC3F30B03002B03D1BB8C43F00103BF
:10398000BB84BA8CFB8C13439BB26FEA43436FEA50
:103990005343FB847B8C4FF4967202FB03F31E4A65
:1039A00082FB03129211DB17D31A9BB201339AB236
:1039B0007B681A847B68FA8C9A837B681B889BB22D
:1039C00043F001039AB27B681A807B681B88FB84F2
:1039D000FB8C23F4816323F00203FB843B689A8809
:1039E0003B685B8913439AB2FB8C1343FB847B686F
:1039F000FA8C1A803B689A893B681B8913439AB2F8
:103A00007B681A8100BF2837BD4680BD00127A004E
:103A100083DE1B43A0860100D34D621080B483B0C7
:103A200000AF78607B6841F288321A607B680022C0
:103A30009A807B684BF6FF72DA807B6800221A81DD
:103A40007B6800225A817B684FF480429A8100BFD4
:103A50000C37BD4680BC704780B483B000AF78603F
:103A60000B46FB70FB78002B08D07B681B889BB251
:103A700043F001039AB27B681A8007E07B681B88D9
:103A80009BB223F001039AB27B681A8000BF0C3707
:103A9000BD4680BC704780B483B000AF78600B46F1
:103AA000FB70FB78002B08D07B681B889BB243F42B
:103AB00080739AB27B681A8007E07B681B889BB290
:103AC00023F480739AB27B681A8000BF0C37BD461E
:103AD00080BC704780B483B000AF78600B46FB7049
:103AE000FB78002B08D07B681B889BB243F40073E3
:103AF0009AB27B681A8007E07B681B889BB223F42C
:103B000000739AB27B681A8000BF0C37BD4680BC38
:103B1000704780B483B000AF78600B46FB70FB78D1
:103B20009AB27B681A8200BF0C37BD4680BC7047D2
:103B300080B483B000AF78600B46FB701346BB7057
:103B4000BB78002B04D0FB7843F00103FB7003E04B
:103B5000FB7823F00103FB70FB789AB27B681A8232
:103B600000BF0C37BD4680BC704780B487B000AF43
:103B70007860396000233B610023FB600023BB6059
:103B80000023FB757B689B8A9BB2FB607B681B8B69
:103B90009BB2BB60BB681B04BB60FA68BB68134385
:103BA00023F07F433B613A693B6813403A689A428D
:103BB00002D10123FB7501E00023FB75FB7D184654
:103BC0001C37BD4680BC704780B487B000AF7860BA
:103BD00039600023FB7500233B610023FB607B6899
:103BE000FB603B681B0F3B613B6823F07F433B60FE
:103BF0003B69002B03D0FB681433FB6005E03B6896
:103C00001B0C3B60FB681833FB60FB681A683B6861
:103C10001340002B02D00123FB7501E00023FB754C
:103C2000FB7D18461C37BD4680BC704780B483B00E
:103C300000AF0346FB71FB7903F01F03012202FA78
:103C400003F1054A97F907305B0942F8231000BFDA
:103C50000C37BD4680BC704700E100E080B483B003
:103C600000AF03463960FB7197F90730002B0BDA80
:103C70003B68DAB20C49FB7903F00F03043B1201F5
:103C8000D2B20B441A7609E03B68DAB2074997F9D9
:103C900007301201D2B20B4483F8002300BF0C3767
:103CA000BD4680BC704700BF00ED00E000E100E0D1
:103CB00080B500AF01210120FEF7B2FD0E4B9B68DD
:103CC0000D4A43F0020393600C4B1B680B4A43F010
:103CD00001031360094B9B68084A43F0010393609A
:103CE0000620FFF7A3FF064B1B7819460620FFF7B7
:103CF000B5FF00BF80BD00BF0000014000040140CF
:103D0000EC05002080B582B000AF0A210220FDF74B
:103D100021F94FF480633B6000233B7108237B71E2
:103D20000123BB713B461846FEF7E2FF2820FFF750
:103D30007DFF00BF0837BD4680BD000080B500AFE5
:103D40000120FFF747F80346002B47D00120FFF77B
:103D500065F801212248FDF7C7F80346002B3DD046
:103D60004FF47A70FEF7BCFD01211D48FDF7BCF849
:103D70000346002B09D01B4B1B78002B02D0FEF70B
:103D800035FF2BE0FEF720FE28E0174B1B88032BA6
:103D90001AD801A252F823F0A93D0008B13D00084D
:103DA000B93D0008C13D00080F4B01221A800FE009
:103DB0000D4B02221A800BE00B4B03221A8007E006
:103DC000094B00221A8003E0074B00221A8000BF33
:103DD0000020FCF7BFFA054B01221A7100BF80BD1D
:103DE00000100140340A0020360A0020780A002022
:103DF00080B500AF4FF48060FEF7ECFF0346002B68
:103E000023D04FF47A70FEF76BFD4FF480611248B7
:103E1000FDF76AF80346002B17D0104B1B7883F090
:103E20000103DBB2002B0BD0FEF736FDFFF7D2FB10
:103E3000FCF70EFEFFF79AFCFCF722FAFCF790FC69
:103E4000074B01225A70FCF7D9FD4FF48060FEF752
:103E5000E5FF00BF80BD00BF00100140340A002014
:103E6000780A0020024B0146186800F00BB800BF2A
:103E7000D0050020024B0146186800F031BB00BF9E
:103E8000D00500202DE9F04F01F10B05162D83B070
:103E9000064623D8102900F2B68000F085FA1025D6
:103EA00018230220CC4F3B445C68A3F108029442E3
:103EB00000F056816368E16823F0030323445A68E5
:103EC000A56842F00102E96030468D605A6000F05A
:103ED00071FA0834204603B0BDE8F08F35F00705CD
:103EE00000F19180A94200F28E8000F05DFAB5F5F4
:103EF000FC7FC0F064816B0A00F08C80042B00F220
:103F00003681AB0903F1390003F1380CC100B24F1F
:103F100039444C680839A14206D10CE0002A80F2ED
:103F20001B81E468A14206D0636823F003035A1B97
:103F30000F2AF3DD60463C69DFF8B0C264456FD0FC
:103F4000636823F003035A1B0F2A00F32681002A1B
:103F5000C7E904CC80F21781B3F5007F80F0598166
:103F60000122DB08991013448A40796857F833E03E
:103F700007EBC3080A43A8F10801C4E902E17A602B
:103F800047F83340CEF80C40012483109C40944203
:103F90004CD8144206D120F003006400144200F112
:103FA0000400FAD007EBC009CE468046DEF80C309C
:103FB0009E4507D107E1002A80F21C81DB689E45FF
:103FC00000F00181596821F003014A1B0F2AF2DD3C
:103FD00045F001083046D3E902E41D4442F00106F1
:103FE000C3F80480CEF80C40C4F808E0C7E90455D3
:103FF000C5E902CC6E605A50019300F0DBF9019BD9
:1040000003F1080466E700240C232046336003B064
:10401000BDE8F08F4FF4007140204FF03F0C76E781
:1040200001247A6883109C409442B2D9BC686368CA
:1040300023F00309A94503D3A9EB05030F2B7BDC70
:10404000664BDFF8ACA11A68DAF8003005EB02081D
:10405000013300F03A8108F5805808F10F0828F480
:104060007F6828F00F084146304600F0A9F9B0F10A
:10407000FF3F834600F0F68004EB0900584500F24C
:10408000EF80574A13684344136000F03F81DAF829
:10409000001001311BBFABEB00001B18CAF800B0C9
:1040A00013601BF0070300F02681C3F10801C3F57C
:1040B00080538B440833D844C8F30B08A3EB08089B
:1040C00041463046019200F07BF9431C019A00F012
:1040D0003881A0EB0B01414441F001011368BC425F
:1040E0004344C7F808B01360CBF8041015D0B9F1F9
:1040F0000F0F40F222814FF0050E6168A9F10C000C
:1041000020F0070001F00101014304EB000C0F282F
:104110006160CCE901EE00F22C81324A324811682C
:10412000BC688B42016888BF136062688B4222F0D2
:10413000030288BF036099E045F0010243F00103E8
:10414000254462603046BD6008346B6000F032F98F
:10415000204603B0BDE8F08F23445A68E168AFE61B
:10416000DC68A34208BF02303FF4E5AEA2E6142BA0
:1041700070D9542B00F2AC802B0B03F16F0003F1CC
:104180006E0CC100C3E623445A68304642F0010277
:104190005A60083400F00EF99CE645F0010E42F03A
:1041A00001012544C4F804E03046C7E90455C5E9D7
:1041B00002CC6960E25000F0FDF808348AE6E808B5
:1041C00005F108036EE608F1010818F0030F0EF17F
:1041D000080E7FF4EBAE60E0F0050020680A0020D6
:1041E000380A0020600A0020640A0020F805002038
:1041F000F80900201C4619444A68DB6854F8085F37
:1042000042F001024A603046EB609D6000F0D2F857
:1042100060E65A0A042A35D9142A6FD802F15C01E3
:10422000C9005B3207EB010E7958AEF1080E8E45DE
:1042300058D04A6822F003029A4202D989688E4512
:10424000F7D1D1F80CE07A68C4E9021ECEF8084034
:10425000CC6099E603F15C0003F15B0CC10056E60B
:10426000BC4272D0BC68626822F003029542A2EBA5
:10427000050302D80F2B3FF75FAF304600F09AF8E6
:10428000002427E69A0902F13901C9003832C9E74A
:10429000D9F80090994540F0838010F0030FA9F100
:1042A000080300F1FF30F3D17B6823EA04037B604D
:1042B00064009C423FF6BAAE1CB9B7E6640008F150
:1042C00004081C42FAD040466CE608F11008CAE621
:1042D000B3F5AA7F26D8EB0B03F1780003F1770C36
:1042E000C10014E64FF001087B68921008FA02F250
:1042F0001A437A60A8E74FF48053DCE6542A29D8A1
:104300001A0B02F16F01C9006E328BE7C0F30B018B
:1043100000297FF4BCAE09EB0802B96842F0010243
:104320004A60FAE640F2545293421CD8AB0C03F1B7
:104330007D0003F17C0CC100E9E50123CBF80430DA
:104340009BE701214FF00008C8E6164A1368434472
:1043500013609CE6B2F5AA7F14D8DA0B02F178015B
:10436000C90077325EE74FF47E717F204FF07E0CFC
:10437000CDE504F108013046019200F0B1F8019A50
:104380001368CAE640F254518A4205D89A0C02F1E9
:104390007D01C9007C3245E74FF47E717E2241E702
:1043A0007B6885E7380A0020014800F08DB900BF1E
:1043B00038250020014800F089B900BF38250020C9
:1043C00038B50023064C054608462360FFF796F8EB
:1043D000431C00D038BD2368002BFBD02B6038BDB8
:1043E0004C25002020F0030110F00300C0F1000074
:1043F00051F8043B00F1040C4FEACC0C6FF00002C2
:104400001CBF22FA0CF213434FF0010C4CEA0C2CA7
:104410004CEA0C4CA3EB0C0222EA030212EACC1287
:1044200004BF51F8043B0430F4D0C2F1000102EAA9
:104430000102B2FA82F2C2F11F0200EBD200704711
:10444000F8B50C46234F0646FFF7AEFFBB68C4F530
:104450007E615D680F3125F00305294421F47F61F9
:1044600021F00F01A1F58054B4F5805F07DB002136
:104470003046FFF7A5FFBB682B44984204D0304676
:10448000FFF798FF0020F8BD61423046FFF798FF24
:1044900001300DD0104BBA6819682D1B45F001058D
:1044A0003046091B55601960FFF784FF0120F8BDF5
:1044B00000213046FFF784FFBA68831A0F2BDEDD38
:1044C000064943F001030C680349001B5360086070
:1044D000D5E700BFF0050020380A0020F8090020C9
:1044E000002953D0F8B50D460646FFF75DFF55F895
:1044F00004CC714FA5F108012CF00103CA18B8686B
:104500005468904224F0030453D01CF0010F54600F
:1045100002EB04003BD155F808CC4068A1EB0C013C
:104520008D6807F1080E7545634400F0010075D0F1
:10453000D1F80CC0C5F80CC0CCF8085060B343F0FB
:1045400001024A60CB50B3F5007F50D35A0A042AC7
:1045500070D89A0902F13905ED0002F138007C1992
:104560007A59083C944278D0506820F00300984271
:1045700071D992689442F7D1E368C1E902433046A9
:104580009960E160BDE8F840FFF714BF70474068EC
:1045900000F001000028D2D19068484D2344A84281
:1045A00043F0010462D0D268C26090604C60CB508E
:1045B000C9E71CF0010F234407D155F8084C091B2B
:1045C000D1E902022344C26090603D4A43F00100F9
:1045D000126848609A42B96004D83A4B304619686C
:1045E000FFF72EFF3046BDE8F840FFF7E3BE01229B
:1045F000DB087C68981013448240224307EBC30019
:1046000057F833400838C1E902407A60304647F82D
:104610003310E160BDE8F840FFF7CCBE002845D17B
:10462000D2E90202234443F00104C26090604C606E
:10463000CB50D7E7142A08D9542A1ED81A0B02F1F6
:104640006F05ED0002F16E0089E702F15C05ED00F7
:1046500002F15B0083E714468EE70123821078683D
:1046600003FA02F202437A60234686E7C7E904119F
:10467000C1E902004C60CB50B4E7B2F5AA7F06D87E
:10468000DA0B02F17805ED0002F1770067E740F2FE
:104690005450824206D89A0C02F17D05ED0002F1D9
:1046A0007C005CE74FF47E757E2058E743F0010004
:1046B0004860136096E700BFF0050020F805002071
:1046C000FC090020680A0020704700BF704700BF47
:1046D000000000000000003E4551453E003E6B6F6B
:1046E0006B3E001C3E7C3E1C00183C7E3C1800309B
:1046F000367F363000185C7E5C18001C3E3E1C0085
:10470000FFE3C1C1E3FF3E2222223E00FFC3DBDB09
:10471000C3FF002C122A241A0006090906000060B3
:10472000703F0204005C6202625C002A1C361C2A94
:1047300000007F3E1C0800081C3E7F000014367FEE
:1047400036140044445F44440006097F017F002280
:104750004D5559220060606060000019151300007B
:104760000004067F06040010307F30100008083E69
:104770001C0800081C3E0808007840404040000823
:104780001C081C0800303C3F3C3000030F3F0F0367
:104790000000000000000000065F060000070300A4
:1047A000070300247E247E2400242B6A1200006369
:1047B00013086463003649562050000007000000CB
:1047C00000003E4100000000413E000000083E1C89
:1047D0003E080008083E08080000E06000000008ED
:1047E00008080808000060600000002010080402AB
:1047F000003E4141413E0000427F4000006251497D
:104800004946002249494936001814127F10002FEA
:1048100049494931003C4A494930000171090503C1
:1048200000364949493600064949291E00006C6C8A
:1048300000000000EC6C000000081422410000247D
:1048400024242424000041221408000201590906EE
:10485000003E415D551E007E1111117E007F4949C9
:104860004936003E41414122007F4141413E007FA7
:1048700049494941007F09090901003E4149497AF6
:10488000007F0808087F0000417F41000030404061
:10489000403F007F08142241007F40404040007F9D
:1048A0000204027F007F0204087F003E4141413E36
:1048B000007F09090906003E4151215E007F090978
:1048C00019660026494949320001017F0101003F74
:1048D0004040403F001F2040201F003F403C403FE1
:1048E0000063140814630007087008070071494545
:1048F000430000007F414100000204081020000036
:1049000041417F0000040201020480808080808099
:10491000000007060000002054545478007F4444EF
:10492000443800384444442800384444447F003824
:104930005454540800087E0909000018A4A4A47C5B
:10494000007F040478000000007D40000040808467
:104950007D00007F102844000000007F4000007CA4
:1049600004180478007C0404780000384444443877
:1049700000FC444444380038444444FC0044784437
:10498000040800085454542000043E442400003C11
:1049900040207C00001C2040201C003C6030603C1B
:1049A000006C10106C00009CA0603C00006454542B
:1049B0004C0000083E41410000000077000000006C
:1049C00041413E08000201020100003C2623263C32
:1049D000007E1111117E007F49494931007F49490C
:1049E0004936007F01010101C07E41417FC0007F47
:1049F000494949410077087F0877224949493600EB
:104A0000007F2010087F007E2111097E007F08149E
:104A1000224100407E01017F007F0204027F007F6F
:104A20000808087F003E4141413E007F0101017FAF
:104A3000007F09090906003E414141220001017F32
:104A4000010100274848483F000E117F110E006306
:104A500014081463007F40407FC000070808087FE7
:104A6000007F407F407F007F407F40FF03017F4801
:104A70004830007F4848307F007F48484830002257
:104A80004149493E007F083E413E00661909097FC1
:104A9000002054545478003C4A4A4A31007C545413
:104AA0005428007C04040C00C07844447CC00038C6
:104AB00054545408006C107C106C00284454542842
:104AC000007C2010087C007C20120A7C007C1028CE
:104AD0004400403804047C00007C0810087C007C02
:104AE0001010107C003844444438007C0404047CDA
:104AF00000FC444444380038444444280004047C06
:104B00000404009CA0603C000018247C2418006C65
:104B100010106C00007C40407CC0000C1010107C19
:104B2000007C407C407C007C407C40FC0C047C5041
:104B30005020007C5050207C007C50505020002899
:104B400044545438007C1038443800483414147CE1
:104B50000000000000000000000000000000000055
:104B6000000000000000000000F00C0232310131B2
:104B700032020CF000030C101122222211100C033F
:104B800000F0FCFECECFFFCFCEFEFCF000030F1FE7
:104B90001E3D3D3D1E1F0F030000F0F8F8F0E0F051
:104BA000F8F8F0000000000103070F070301000000
:104BB000000080C0E0F0F8F0E0C0800000000001DC
:104BC00003070F07030100000080C0C0B8FCFCFC15
:104BD000B8C0C08000030707131B1F1B1307070380
:104BE000000080C0E0F0FCF0E0C08000000003079F
:104BF000171B1F1B170703000000000080C0C080A8
:104C0000000000000000000001030301000000009C
:104C1000FFFFFFFF7F3F3F7FFFFFFFFFFFFFFFFF24
:104C2000FEFCFCFEFFFFFFFF00F8F818181818182C
:104C3000F8F80000001F1F18181818181F1F000090
:104C4000FFFFFF3FDFEFEFDF3FFFFFFFFFFFFFFC57
:104C5000FBF7F7FBFCFFFFFF00C03010088848306F
:104C600030C8000000090606090808040601000013
:104C700000003844828282443800000000000000B6
:104C80000000000000000000000000000000FF0E17
:104C90007C3800000000000C1E1E0F000000000009
:104CA00000F0F80C06060606060CF8F00033333F59
:104CB0003E0000003E3F33010080C8F030181E184F
:104CC00030F0C88000000907060C3C0C06070900FC
:104CD000000000FCF8F0E0C0800000000000001FB1
:104CE0000F0703010000000000000080C0E0F0F8A2
:104CF000FC000000000000000103070F1F0000007F
:104D000000000010181CFE1C181000000000000419
:104D10000C1C3F1C0C0400000000303030FEFE3044
:104D20003030000000001818181919181818000061
:104D300000387CC682FEFE02FEFE0200000000007B
:104D4000003F3F003F3F00000000DCFE2222222205
:104D5000E6C4000000000819111111111F0E000017
:104D6000000000000000000000000000000000380B
:104D70003838383838383800000062515149460018
:104D80000000000000000000000000000000000023
:104D900000000010181CFE1C18100000000000008D
:104DA00000003F0000000000000000000000FE00C6
:104DB00000000000000000040C1C3F1C0C0400005C
:104DC00000008080808080F0E0C080000000000053
:104DD0000000000703010000000080C0E0F08080B8
:104DE0008080800000000001030700000000000038
:104DF000000000000000000000000000003F202034
:104E000020202020202020000080C0E0F080808032
:104E1000F0E0C0800000010307000000070301006C
:104E20000000000080C0E0C0800000000004060711
:104E30000707070707070604002060E0E0E0E0E05E
:104E4000E0E0602000000000010307030100000013
:104E50000000000000000000000000000000000052
:104E60000000000000000000000000007CFFFF7C4C
:104E700000000000000000000033330000000000CC
:104E80000000003C3C00003C3C0000000000000032
:104E9000000000000000000000001090F07E1E9056
:104EA000F07E1E1000021E1F03021E1F03020000E0
:104EB000000078FCCCFFFFCCCC8800000000040C84
:104EC0000C3F3F0C0F07000000003838380080C04E
:104ED000E070381C0030381C0E07030138383800E9
:104EE000000000B8FCC6E23E1C00000000001F3FAE
:104EF0003121371E1C36220000000000273F1F0012
:104F000000000000000000000000000000000000A1
:104F1000000000F0FCFE070101000000000000039B
:104F20000F1F382020000000000000010107FEFCD8
:104F3000F00000000000002020381F0F03000000D8
:104F4000000098B8E0F8F8E0B898000000000C0EF7
:104F5000030F0F030E0C00000000808080F0F08033
:104F60008080000000000101010F0F01010100001D
:104F70000000000000000000000000000000000031
:104F8000B8F87800000000000000808080808080F9
:104F90008080000000000101010101010101000009
:104FA0000000000000000000000000000000000001
:104FB0003838380000000000000000000080C0E029
:104FC00070381C0E00181C0E0703010000000000C2
:104FD00000F8FE06030303030306FEF800071F188C
:104FE0003030303030181F070000000C0C0EFFFF6F
:104FF000000000000000003030303F3F3030300013
:10500000001C1E07030383C3E3773E1C0030383CBB
:105010003E37333130303030000C0E07C3C3C3C3CA
:10502000C3E77E3C000C1C383030303030391F0E66
:1050300000C0E070381C0E07FFFF000000030303F0
:10504000030303033F3F0303003F7F636363636323
:1050500063E3C383000C1C383030303030381F0F0E
:1050600000C0F0F8DCCEC7C3C3C38000000F1F39F7
:105070003030303030391F0F00030303030303C304
:10508000F33F0F0300000000303C0F03000000005E
:105090000000BCFEE7C3C3C3E7FEBC00000F1F391E
:1050A0003030303030391F0F003C7EE7C3C3C3C3FC
:1050B000C3E7FEFC000000303030381C0E07030050
:1050C0000000000070707000000000000000000090
:1050D0001C1C1C000000000000000000707070002C
:1050E00000000000000000009CFC7C0000000000AC
:1050F0000000C0E0F0381C0E0703000000000001B3
:1051000003070E1C383000000000606060606060C3
:105110006060600000000606060606060606060039
:10512000000003070E1C38F0E0C00000000030381B
:105130001C0E070301000000001C1E070383C3E3CD
:10514000773E1C0000000000003737000000000020
:1051500000F8FE07F3FB1BFBFB07FEF8000F1F1810
:105160003337363737360301000000E0FC1F1FFCE1
:10517000E000000000383F0706060606073F38003B
:1051800000FFFFC3C3C3C3E7FEBC0000003F3F30C6
:1051900030303030391F0F0000F0FC0E07030303DE
:1051A000070E0C0000030F1C38303030381C0C0088
:1051B00000FFFF03030303070EFCF000003F3F3036
:1051C000303030381C0F030000FFFFC3C3C3C3C31C
:1051D000C3030300003F3F30303030303030300008
:1051E00000FFFFC3C3C3C3C3C3030300003F3F00AB
:1051F000000000000000000000F0FC0E0703C3C325
:10520000C3C7C60000030F1C38303030303F3F00AA
:1052100000FFFFC0C0C0C0C0C0FFFF00003F3F0094
:1052200000000000003F3F000000000303FFFF03F9
:105230000300000000000030303F3F30300000002D
:10524000000000000000000000FFFF00000E1E38FC
:1052500030303030381F070000FFFFC0E0F0381C4E
:105260000E070300003F3F000103070E1C3830000B
:1052700000FFFF000000000000000000003F3F3082
:10528000303030303030300000FFFF1E78E0E07802
:105290001EFFFF00003F3F0000010100003F3F00F4
:1052A00000FFFF0E38F0C00000FFFF00003F3F008E
:1052B000000003071C3F3F0000F0FC0E070303073C
:1052C0000EFCF00000030F1C383030381C0F0300B8
:1052D00000FFFF8383838383C7FE7C00003F3F0181
:1052E000010101010100000000F0FC0E07030307AB
:1052F0000EFCF00000030F1C3830363E1C3F33001C
:1053000000FFFF8383838383C7FE7C00003F3F0150
:105310000103070F1D383000003C7EE7C3C3C3C341
:10532000C78E0C00000C1C3830303030391F0F0095
:105330000000030303FFFF0303030000000000005D
:10534000003F3F000000000000FFFF0000000000E1
:1053500000FFFF0000071F3830303030381F0700D3
:1053600000073FF8C00000C0F83F07000000000140
:105370000F3E3E0F0100000000FFFF000080800094
:1053800000FFFF00003F3F1C060303061C3F3F00D9
:1053900000030F1C30E0E0301C0F030000303C0E17
:1053A000030101030E3C300000030F3CF0C0C0F0CD
:1053B0003C0F030000000000003F3F000000000021
:1053C0000003030303C3E3331F0F030000303C3E1D
:1053D0003331303030303000000000FFFF03030372
:1053E000030000000000003F3F303030300000007C
:1053F000000E1C3870E0C0800000000000000000BB
:1054000000000103070E1C1800000003030303FF44
:10541000FF000000000000303030303F3F0000004F
:10542000006070381C0E070E1C3870600000000011
:10543000000000000000000000000000000000006C
:105440000000000000C0C0C0C0C0C0C0C0C0C0C01C
:105450000000003E3F390000000000000000000096
:10546000000000000000000000004060606060601C
:1054700060E0C000001C3E3333333333333F3F0022
:1054800000FFFFC060606060E0C08000003F3F3010
:1054900030303030381F0F000080C0E06060606046
:1054A00060C08000000F1F383030303030180800E6
:1054B0000080C0E0606060E0C0FFFF00000F1F38A8
:1054C00030303030303F3F000080C0E060606060CE
:1054D00060C08000000F1F3B3333333333130100B0
:1054E00000C0C0FCFEC7C3C3030000000000003FB3
:1054F0003F000000000000000080C0E060606060CD
:1055000060E0E0000003C7CECCCCCCCCE67F3F000F
:1055100000FFFFC0606060E0C0800000003F3F000F
:10552000000000003F3F00000000000060ECEC00C5
:105530000000000000000030303F3F30300000002D
:1055400000000000000060ECEC00000000000060C3
:10555000E0C0C0FF7F0000000000FFFF0080C0E04F
:105560006000000000003F3F03070F1C38300000C0
:105570000000000003FFFF000000000000000030FA
:10558000303F3F303000000000E0C0E0E0C0C0E04D
:10559000E0C08000003F3F00003F3F00003F3F0071
:1055A0000000E0E060606060E0C0800000003F3F1D
:1055B00000000000003F3F000080C0E060606060CD
:1055C000E0C08000000F1F3830303030381F0F002F
:1055D00000E0E06060606060E0C0800000FFFF0C01
:1055E000181818181C0F07000080C0E06060606089
:1055F00060E0E00000070F1C181818180CFFFF00EF
:105600000000E0E0C060606060E0C00000003F3F7C
:10561000000000000000000000C0E060606060600A
:1056200040000000001133333333333F1E000000CD
:10563000006060FEFE606060000000000000001F6F
:105640003F3030303000000000E0E000000000009B
:1056500000E0E000000F1F3830303030183F3F00CE
:105660000060E0800000000080E0600000000107B2
:105670001E38381E0701000000E0E00000E0E000F6
:1056800000E0E00000071F381C0F0F1C381F070048
:105690000060E0C0800080C0E06000000030381D85
:1056A0000F070F1D38300000000060E08000008010
:1056B000E060000000000081E77E1E07010000009E
:1056C000006060606060E0E0602000000030383C16
:1056D0003633313030300000000080C0FC7E0703DC
:1056E00003030000000000011F3F706060600000C5
:1056F0000000000000FFFF000000000000000000AC
:10570000003F3F00000000000000030303077EFC91
:10571000C08000000000606060703F1F010000005A
:105720000010180C040C1810180C040000000000E5
:105730000000000000000000000080C06030306009
:10574000C0800000000F0F0C0C0C0C0C0C0F0F0095
:1057500000F0FC0E0703030303FFFF00003F3F03BD
:1057600003030303033F3F0000FFFFC3C3C3C3C3DF
:10577000C3830300003F3F3030303030391F0F000B
:1057800000FFFFC3C3C3C3E7FEBC0000003F3F30C0
:1057900030303030391F0F0000FFFF0303030303D5
:1057A00003030300003F3F00000000000000000072
:1057B00000F0FC0E0703030303FFFF00F0FF3F3080
:1057C00030303030303FFFF000FFFFC3C3C3C3C3EE
:1057D000C3030300003F3F30303030303030300002
:1057E0000F3EF8E0C0FFFFC0E0F81E073C1F0701B6
:1057F000003F3F0001071F3C000C0E07C3C3C3C39B
:10580000C3E77E3C000C1C383030303030391F0E7E
:1058100000FFFF0000C0F0380EFFFF00003F3F1CFC
:1058200007030000003F3F0000FFFF0000C6F33801
:105830000EFFFF00003F3F1C07030000003F3F003A
:1058400000FFFFC0E0F0381C0E070300003F3F00E0
:105850000103070E1C38300000F0FC0E07030303A1
:1058600003FFFF00003F3F0000000000003F3F003B
:1058700000FFFF1E78E0E0781EFFFF00003F3F00C2
:1058800000010100003F3F0000FFFFC0C0C0C0C0DA
:10589000C0FFFF00003F3F0000000000003F3F004E
:1058A00000F0FC0E070303070EFCF00000030F1CC2
:1058B000383030381C0F030000FFFF0303030303DD
:1058C00003FFFF00003F3F0000000000003F3F00DB
:1058D00000FFFF8383838383C7FE7C00003F3F017B
:1058E000010101010100000000F0FC0E07030303A9
:1058F000070E0C0000030F1C38303030381C0C0031
:105900000000030303FFFF03030300000000000087
:10591000003F3F0000000000007FFFC0C0C0C0C0CB
:10592000C0FFFF000018383030303030381F07001B
:1059300000F8FC0C0CFFFF0C0CFCF8000003070641
:10594000063F3F060607030000030F1C30E0E0306F
:105950001C0F030000303C0E030101030E3C30001D
:1059600000FFFF0000000000FFFF0000003F3F308D
:10597000303030303FFFF000007FFFC0C0C0C0C0FB
:10598000C0FFFF000000000000000000003F3F00DB
:1059900000FFFF0000FFFF0000FFFF00003F3F305F
:1059A000303F3F30303F3F0000FFFF0000FFFF006F
:1059B00000FFFF00003F3F30303F3F30303FFFF0FF
:1059C0000F0F03FFFF606060E0C080000000003F39
:1059D0003F303030381F0F0000FFFF6060E0C080B4
:1059E00000FFFF00003F3F3030381F0F003F3F00F7
:1059F00000FFFF6060606060E0C08000003F3F30FB
:105A000030303030381F0F00000C0E07C3C3C3C73F
:105A1000CEFCF000000C1C38303030381C0F030076
:105A2000FFFFC0F0FC0E0703070EFCF03F3F000332
:105A30000F1C3830381C0F03007CFEC78383838320
:105A400083FFFF000030381D0F070301013F3F00B7
:105A5000000040606060606060E0C000001C3E3399
:105A600033333333333F3F0000F0F898D8D8D8D8D9
:105A7000D88C0000001F3F3130303030391F0F000C
:105A80000000E0E060606060E0C0000000003F3FB8
:105A9000323232323F1D00000000E0E060606060A2
:105AA0006060000000003F3F0000000000000000B8
:105AB000000080C060606060E0E0000000F0FF3F38
:105AC000303030303FFFF0000080C0E06060606048
:105AD00060C08000000F1F3B3333333333130100AA
